{
  "abi": [
    {
      "type": "constructor",
      "inputs": [
        {
          "name": "_swapRouter",
          "type": "address",
          "internalType": "address"
        },
        {
          "name": "_quoter",
          "type": "address",
          "internalType": "address"
        },
        {
          "name": "_tokenFactory",
          "type": "address",
          "internalType": "address"
        },
        {
          "name": "_weth",
          "type": "address",
          "internalType": "address"
        }
      ],
      "stateMutability": "nonpayable"
    },
    {
      "type": "receive",
      "stateMutability": "payable"
    },
    {
      "type": "function",
      "name": "BPS_DENOMINATOR",
      "inputs": [],
      "outputs": [
        {
          "name": "",
          "type": "uint256",
          "internalType": "uint256"
        }
      ],
      "stateMutability": "view"
    },
    {
      "type": "function",
      "name": "MAX_SLIPPAGE",
      "inputs": [],
      "outputs": [
        {
          "name": "",
          "type": "uint256",
          "internalType": "uint256"
        }
      ],
      "stateMutability": "view"
    },
    {
      "type": "function",
      "name": "POOL_FEE",
      "inputs": [],
      "outputs": [
        {
          "name": "",
          "type": "uint24",
          "internalType": "uint24"
        }
      ],
      "stateMutability": "view"
    },
    {
      "type": "function",
      "name": "TRADING_FEE",
      "inputs": [],
      "outputs": [
        {
          "name": "",
          "type": "uint256",
          "internalType": "uint256"
        }
      ],
      "stateMutability": "view"
    },
    {
      "type": "function",
      "name": "WETH",
      "inputs": [],
      "outputs": [
        {
          "name": "",
          "type": "address",
          "internalType": "address"
        }
      ],
      "stateMutability": "view"
    },
    {
      "type": "function",
      "name": "buyToken",
      "inputs": [
        {
          "name": "tokenAddress",
          "type": "address",
          "internalType": "address"
        },
        {
          "name": "slippageBps",
          "type": "uint256",
          "internalType": "uint256"
        }
      ],
      "outputs": [],
      "stateMutability": "payable"
    },
    {
      "type": "function",
      "name": "feeRecipient",
      "inputs": [],
      "outputs": [
        {
          "name": "",
          "type": "address",
          "internalType": "address"
        }
      ],
      "stateMutability": "view"
    },
    {
      "type": "function",
      "name": "getAmountOut",
      "inputs": [
        {
          "name": "tokenIn",
          "type": "address",
          "internalType": "address"
        },
        {
          "name": "tokenOut",
          "type": "address",
          "internalType": "address"
        },
        {
          "name": "amountIn",
          "type": "uint256",
          "internalType": "uint256"
        }
      ],
      "outputs": [
        {
          "name": "",
          "type": "uint256",
          "internalType": "uint256"
        }
      ],
      "stateMutability": "nonpayable"
    },
    {
      "type": "function",
      "name": "quoter",
      "inputs": [],
      "outputs": [
        {
          "name": "",
          "type": "address",
          "internalType": "contract IQuoterV2"
        }
      ],
      "stateMutability": "view"
    },
    {
      "type": "function",
      "name": "sellToken",
      "inputs": [
        {
          "name": "tokenAddress",
          "type": "address",
          "internalType": "address"
        },
        {
          "name": "tokenAmount",
          "type": "uint256",
          "internalType": "uint256"
        },
        {
          "name": "slippageBps",
          "type": "uint256",
          "internalType": "uint256"
        },
        {
          "name": "deadline",
          "type": "uint256",
          "internalType": "uint256"
        },
        {
          "name": "v",
          "type": "uint8",
          "internalType": "uint8"
        },
        {
          "name": "r",
          "type": "bytes32",
          "internalType": "bytes32"
        },
        {
          "name": "s",
          "type": "bytes32",
          "internalType": "bytes32"
        }
      ],
      "outputs": [],
      "stateMutability": "payable"
    },
    {
      "type": "function",
      "name": "swapRouter",
      "inputs": [],
      "outputs": [
        {
          "name": "",
          "type": "address",
          "internalType": "contract ISwapRouter02"
        }
      ],
      "stateMutability": "view"
    },
    {
      "type": "function",
      "name": "tokenFactory",
      "inputs": [],
      "outputs": [
        {
          "name": "",
          "type": "address",
          "internalType": "contract ITokenFactory"
        }
      ],
      "stateMutability": "view"
    },
    {
      "type": "event",
      "name": "TokenBought",
      "inputs": [
        {
          "name": "token",
          "type": "address",
          "indexed": true,
          "internalType": "address"
        },
        {
          "name": "buyer",
          "type": "address",
          "indexed": true,
          "internalType": "address"
        },
        {
          "name": "ethIn",
          "type": "uint256",
          "indexed": false,
          "internalType": "uint256"
        },
        {
          "name": "tokensOut",
          "type": "uint256",
          "indexed": false,
          "internalType": "uint256"
        }
      ],
      "anonymous": false
    },
    {
      "type": "event",
      "name": "TokenSold",
      "inputs": [
        {
          "name": "token",
          "type": "address",
          "indexed": true,
          "internalType": "address"
        },
        {
          "name": "seller",
          "type": "address",
          "indexed": true,
          "internalType": "address"
        },
        {
          "name": "tokensIn",
          "type": "uint256",
          "indexed": false,
          "internalType": "uint256"
        },
        {
          "name": "ethOut",
          "type": "uint256",
          "indexed": false,
          "internalType": "uint256"
        }
      ],
      "anonymous": false
    },
    {
      "type": "error",
      "name": "ReentrancyGuardReentrantCall",
      "inputs": []
    }
  ],
  "bytecode": {
    "object": "0x6101203461010657601f610e7538819003918201601f19168301916001600160401b0383118484101761010a57808492608094604052833981010312610106576100488161011e565b906100556020820161011e565b61006d60606100666040850161011e565b930161011e565b60015f556001600160a01b0393841660805290831660a052911660c05260e0523361010052604051610d4290816101338239608051818181610185015281816103120152610652015260a0518181816101400152610b8d015260c05181818160de0152610c6d015260e0518181816101ca015281816102640152610575015261010051818181610358015281816104c001526107690152f35b5f80fd5b634e487b7160e01b5f52604160045260245ffd5b51906001600160a01b03821682036101065756fe6080604052600436101561001a575b3615610018575f80fd5b005b5f5f3560e01c806307160c121461051057806323531b90146104ef57806346904840146104aa5780634aa066521461046457806368f8fc10146101f9578063ad5c4648146101b4578063c31c9c071461016f578063c6bbd5a71461012a578063dd1b9c4a1461010d578063e1a452181461010d578063e77772fe146100c85763f9759518146100a9575061000e565b346100c557806003193601126100c55760206040516103e88152f35b80fd5b50346100c557806003193601126100c5576040517f00000000000000000000000000000000000000000000000000000000000000006001600160a01b03168152602090f35b50346100c557806003193601126100c55760206040516127108152f35b50346100c557806003193601126100c5576040517f00000000000000000000000000000000000000000000000000000000000000006001600160a01b03168152602090f35b50346100c557806003193601126100c5576040517f00000000000000000000000000000000000000000000000000000000000000006001600160a01b03168152602090f35b50346100c557806003193601126100c5576040517f00000000000000000000000000000000000000000000000000000000000000006001600160a01b03168152602090f35b5060403660031901126100c55761020e610928565b6024359061021a610c27565b6571afd498d00034111561041f576102366103e883111561093e565b61024761024282610c45565b61097e565b6571afd498cfff1934019134831161040b57602061030d916102ae7f0000000000000000000000000000000000000000000000000000000000000000916127106102a7610295898987610af1565b926102a18415156109ba565b836109f5565b0490610a1c565b93604051916102bc83610a29565b60018060a01b0316825260018060a01b0316938483830152612710604083015233606083015285608083015260a08201528560c0820152604051809381926304e45aaf60e01b835260048301610a93565b0381867f00000000000000000000000000000000000000000000000000000000000000006001600160a01b03165af19081156104005784916103ca575b50838080806571afd498d0007f00000000000000000000000000000000000000000000000000000000000000006001600160a01b031682f1156103bf5760405192835260208301527f9fa236593f411affe147142a606176190ea6b18be0643332f081175cfe608b6b60403393a36001815580f35b6040513d85823e3d90fd5b90506020813d6020116103f8575b816103e560209383610a59565b810103126103f457515f61034a565b5f80fd5b3d91506103d8565b6040513d86823e3d90fd5b634e487b7160e01b84526011600452602484fd5b60405162461bcd60e51b815260206004820152601f60248201527f4d7573742073656e64206d6f7265207468616e2074726164696e6720666565006044820152606490fd5b50346100c55760603660031901126100c55761047e610928565b90602435906001600160a01b03821682036100c55760206104a26044358486610af1565b604051908152f35b50346100c557806003193601126100c5576040517f00000000000000000000000000000000000000000000000000000000000000006001600160a01b03168152602090f35b50346100c557806003193601126100c55760206040516571afd498d0008152f35b5060e03660031901126103f457610525610928565b602435906044356084359160ff83168093036103f457610543610c27565b6571afd498d00034106108eb5783156108ae576105646103e883111561093e565b61057061024282610c45565b6105a67f0000000000000000000000000000000000000000000000000000000000000000926127106102a7610295888787610af1565b6001600160a01b0390911692833b156103f4576040519063d505accf60e01b82523360048301523060248301528560448301526064356064830152608482015260a43560a482015260c43560c48201525f8160e48183885af180156108a35761088c575b509084916040516323b872dd60e01b815233600482015230602482015285604482015260208160648187895af180156104005761086f575b5060405163095ea7b360e01b81527f00000000000000000000000000000000000000000000000000000000000000006001600160a01b03166004820181905260248201879052602082604481888a5af190811561086457859460209361070193610839575b50604051906106b582610a29565b88825260018060a01b0316948585830152612710604083015230606083015289608083015260a08201528560c08201526040519687809481936304e45aaf60e01b835260048301610a93565b03925af19283156107f3578293610802575b50803b156107fe57818091602460405180948193632e1a7d4d60e01b83528860048401525af180156107f3576107da575b50808280156107d0575b8280929181923390f1156103bf57838080806571afd498d0007f00000000000000000000000000000000000000000000000000000000000000006001600160a01b031682f1156103bf5760405192835260208301527fa8a7473f10e62cf9687e243de1c3ac8b3cbc3dd04b96826beb3a65b59538581460403393a36001815580f35b6108fc915061074e565b816107e491610a59565b6107ef57835f610744565b8380fd5b6040513d84823e3d90fd5b5080fd5b915091506020813d602011610831575b8161081f60209383610a59565b810103126103f457849051915f610713565b3d9150610812565b61085890853d871161085d575b6108508183610a59565b810190610a7b565b6106a7565b503d610846565b6040513d87823e3d90fd5b6108879060203d60201161085d576108508183610a59565b610642565b61089a919295505f90610a59565b5f93905f61060a565b6040513d5f823e3d90fd5b60405162461bcd60e51b81526020600482015260156024820152744d7573742073656c6c20736f6d6520746f6b656e7360581b6044820152606490fd5b60405162461bcd60e51b81526020600482015260156024820152744d7573742073656e642074726164696e672066656560581b6044820152606490fd5b600435906001600160a01b03821682036103f457565b1561094557565b60405162461bcd60e51b81526020600482015260116024820152700a6d8d2e0e0c2ceca40e8dede40d0d2ced607b1b6044820152606490fd5b1561098557565b60405162461bcd60e51b815260206004820152600d60248201526c24b73b30b634b2103a37b5b2b760991b6044820152606490fd5b156109c157565b60405162461bcd60e51b815260206004820152600c60248201526b4e6f206c697175696469747960a01b6044820152606490fd5b81810292918115918404141715610a0857565b634e487b7160e01b5f52601160045260245ffd5b91908203918211610a0857565b60e0810190811067ffffffffffffffff821117610a4557604052565b634e487b7160e01b5f52604160045260245ffd5b90601f8019910116810190811067ffffffffffffffff821117610a4557604052565b908160209103126103f4575180151581036103f45790565b81516001600160a01b03908116825260208084015182169083015260408084015162ffffff16908301526060808401518216908301526080808401519083015260a0808401519083015260c092830151169181019190915260e00190565b8215610c20576040519260a084019184831067ffffffffffffffff841117610a455760409283526001600160a01b03908116855292831660208501908152848301918252612710606086019081525f60808088018281529551636352813560e11b8152975187166004890152925186166024880152925160448701525162ffffff1660648601529151831660848501529091839160a4918391907f0000000000000000000000000000000000000000000000000000000000000000165af15f9181610bc4575b50610bc157505f90565b90565b9091506080813d608011610c18575b81610be060809383610a59565b810103126103f457805160208201519091906001600160a01b038116036103f4576040015163ffffffff8116036103f457905f610bb7565b3d9150610bd3565b5050505f90565b60025f5414610c365760025f55565b633ee5aeb560e01b5f5260045ffd5b604080516301f2d85560e41b81526001600160a01b03928316600482015291829060249082907f0000000000000000000000000000000000000000000000000000000000000000165afa90815f915f93610cc1575b50610ca55750505f90565b6001600160a01b031615159081610cba575090565b9050151590565b915091506040813d604011610d04575b81610cde60409383610a59565b810103126103f4578051906001600160a01b03821682036103f45760200151915f610c9a565b3d9150610cd156fea2646970667358221220c5aac7844abf46e7929fb95bd64f5bbb592ad16ce96073c8a563b48a5ce6248364736f6c634300081e0033",
    "linkReferences": {}
  },
  "methodIdentifiers": {
    "BPS_DENOMINATOR()": "e1a45218",
    "MAX_SLIPPAGE()": "f9759518",
    "POOL_FEE()": "dd1b9c4a",
    "TRADING_FEE()": "23531b90",
    "WETH()": "ad5c4648",
    "buyToken(address,uint256)": "68f8fc10",
    "feeRecipient()": "46904840",
    "getAmountOut(address,address,uint256)": "4aa06652",
    "quoter()": "c6bbd5a7",
    "sellToken(address,uint256,uint256,uint256,uint8,bytes32,bytes32)": "07160c12",
    "swapRouter()": "c31c9c07",
    "tokenFactory()": "e77772fe"
  },
  "id": 60
}