{
  "abi": [
    {
      "type": "constructor",
      "inputs": [
        {
          "name": "_uniswapFactory",
          "type": "address",
          "internalType": "address"
        },
        {
          "name": "_positionManager",
          "type": "address",
          "internalType": "address"
        },
        {
          "name": "_weth",
          "type": "address",
          "internalType": "address"
        },
        {
          "name": "_swapRouter",
          "type": "address",
          "internalType": "address"
        }
      ],
      "stateMutability": "nonpayable"
    },
    {
      "type": "receive",
      "stateMutability": "payable"
    },
    {
      "type": "function",
      "name": "POOL_FEE",
      "inputs": [],
      "outputs": [
        {
          "name": "",
          "type": "uint24",
          "internalType": "uint24"
        }
      ],
      "stateMutability": "view"
    },
    {
      "type": "function",
      "name": "TOTAL_SUPPLY",
      "inputs": [],
      "outputs": [
        {
          "name": "",
          "type": "uint256",
          "internalType": "uint256"
        }
      ],
      "stateMutability": "view"
    },
    {
      "type": "function",
      "name": "WETH",
      "inputs": [],
      "outputs": [
        {
          "name": "",
          "type": "address",
          "internalType": "address"
        }
      ],
      "stateMutability": "view"
    },
    {
      "type": "function",
      "name": "collectFees",
      "inputs": [
        {
          "name": "tokenAddress",
          "type": "address",
          "internalType": "address"
        }
      ],
      "outputs": [],
      "stateMutability": "nonpayable"
    },
    {
      "type": "function",
      "name": "createTokenAndPool",
      "inputs": [
        {
          "name": "name",
          "type": "string",
          "internalType": "string"
        },
        {
          "name": "symbol",
          "type": "string",
          "internalType": "string"
        },
        {
          "name": "tokenURI",
          "type": "string",
          "internalType": "string"
        }
      ],
      "outputs": [
        {
          "name": "tokenAddress",
          "type": "address",
          "internalType": "address"
        },
        {
          "name": "poolAddress",
          "type": "address",
          "internalType": "address"
        }
      ],
      "stateMutability": "payable"
    },
    {
      "type": "function",
      "name": "getPenalty",
      "inputs": [
        {
          "name": "ethAmount",
          "type": "uint256",
          "internalType": "uint256"
        }
      ],
      "outputs": [
        {
          "name": "",
          "type": "uint256",
          "internalType": "uint256"
        }
      ],
      "stateMutability": "pure"
    },
    {
      "type": "function",
      "name": "launches",
      "inputs": [
        {
          "name": "",
          "type": "address",
          "internalType": "address"
        }
      ],
      "outputs": [
        {
          "name": "creator",
          "type": "address",
          "internalType": "address"
        },
        {
          "name": "positionId",
          "type": "uint256",
          "internalType": "uint256"
        },
        {
          "name": "totalEthFeesCollected",
          "type": "uint256",
          "internalType": "uint256"
        },
        {
          "name": "totalTokenFeesCollected",
          "type": "uint256",
          "internalType": "uint256"
        }
      ],
      "stateMutability": "view"
    },
    {
      "type": "function",
      "name": "owner",
      "inputs": [],
      "outputs": [
        {
          "name": "",
          "type": "address",
          "internalType": "address"
        }
      ],
      "stateMutability": "view"
    },
    {
      "type": "function",
      "name": "positionManager",
      "inputs": [],
      "outputs": [
        {
          "name": "",
          "type": "address",
          "internalType": "contract INonfungiblePositionManager"
        }
      ],
      "stateMutability": "view"
    },
    {
      "type": "function",
      "name": "swapRouter",
      "inputs": [],
      "outputs": [
        {
          "name": "",
          "type": "address",
          "internalType": "contract ISwapRouter02"
        }
      ],
      "stateMutability": "view"
    },
    {
      "type": "function",
      "name": "uniswapFactory",
      "inputs": [],
      "outputs": [
        {
          "name": "",
          "type": "address",
          "internalType": "contract IUniswapV3Factory"
        }
      ],
      "stateMutability": "view"
    },
    {
      "type": "event",
      "name": "FeesCollected",
      "inputs": [
        {
          "name": "token",
          "type": "address",
          "indexed": true,
          "internalType": "address"
        },
        {
          "name": "creator",
          "type": "address",
          "indexed": true,
          "internalType": "address"
        },
        {
          "name": "ethFees",
          "type": "uint256",
          "indexed": false,
          "internalType": "uint256"
        },
        {
          "name": "tokenFees",
          "type": "uint256",
          "indexed": false,
          "internalType": "uint256"
        }
      ],
      "anonymous": false
    },
    {
      "type": "event",
      "name": "PenaltyApplied",
      "inputs": [
        {
          "name": "user",
          "type": "address",
          "indexed": true,
          "internalType": "address"
        },
        {
          "name": "penaltyAmount",
          "type": "uint256",
          "indexed": false,
          "internalType": "uint256"
        }
      ],
      "anonymous": false
    },
    {
      "type": "event",
      "name": "TokenCreated",
      "inputs": [
        {
          "name": "token",
          "type": "address",
          "indexed": true,
          "internalType": "address"
        },
        {
          "name": "creator",
          "type": "address",
          "indexed": true,
          "internalType": "address"
        },
        {
          "name": "name",
          "type": "string",
          "indexed": false,
          "internalType": "string"
        },
        {
          "name": "symbol",
          "type": "string",
          "indexed": false,
          "internalType": "string"
        },
        {
          "name": "pool",
          "type": "address",
          "indexed": true,
          "internalType": "address"
        },
        {
          "name": "positionId",
          "type": "uint256",
          "indexed": false,
          "internalType": "uint256"
        }
      ],
      "anonymous": false
    },
    {
      "type": "error",
      "name": "ReentrancyGuardReentrantCall",
      "inputs": []
    }
  ],
  "bytecode": {
    "object": "0x610100346100fe57601f61337038819003918201601f19168301916001600160401b03831184841017610102578084926080946040528339810103126100fe5761004881610116565b9061005560208201610116565b61006d606061006660408501610116565b9301610116565b60015f8190556001600160a01b0394851660805291841660a05260e092909252911660c05280546001600160a01b03191633179055604051613245908161012b823960805181818161053f015261097f015260a05181818161020a015281816105830152610639015260c05181818160d20152610ba1015260e0518181816101170152818161023f01526106640152f35b5f80fd5b634e487b7160e01b5f52604160045260245ffd5b51906001600160a01b03821682036100fe5756fe608080604052600436101561001c575b50361561001a575f80fd5b005b5f905f3560e01c9081631f2d855014610f65575080634105ddc7146105b2578063791b98bc1461056e5780638bdb2afa1461052a5780638da5cb5b14610502578063902d55a5146104dc57806396e59682146104b6578063a480ca7914610146578063ad5c464814610101578063c31c9c07146100bc5763dd1b9c4a0361000f57346100b957806003193601126100b95760206040516127108152f35b80fd5b50346100b957806003193601126100b9576040517f00000000000000000000000000000000000000000000000000000000000000006001600160a01b03168152602090f35b50346100b957806003193601126100b9576040517f00000000000000000000000000000000000000000000000000000000000000006001600160a01b03168152602090f35b50346103ec5760203660031901126103ec576004356001600160a01b038116908190036103ec5761017561113d565b5f81815260026020526040902080549091906001600160a01b0316330361047d576001820154604051906101a882610fc8565b81526001600160801b0360208201308152816040840181815260608501928284526040519563fc6f786560e01b875251600487015260018060a01b03905116602486015251166044840152511660648201526040816084815f60018060a01b037f0000000000000000000000000000000000000000000000000000000000000000165af19283156103e1575f915f94610442575b507f00000000000000000000000000000000000000000000000000000000000000006001600160a01b031680841094909290851561043b5780955b156104335750915b841580928115809261042a575b156103f057806002600392016102a38982546110c4565b9055016102b18582546110c4565b9055610367575b5050806102f8575b60405192835260208301527f28a87b6059180e46de5fb9ab35eb043e8fe00ab45afcc7789e3934ecbbcde3ea60403393a36001815580f35b60405163a9059cbb60e01b81523360048201526024810182905260208160448188875af1801561035c5761032d575b506102c0565b61034e9060203d602011610355575b6103468183610fe4565b8101906110ac565b505f610327565b503d61033c565b6040513d87823e3d90fd5b803b156103ec575f8091602460405180948193632e1a7d4d60e01b83528a60048401525af180156103e1576103cc575b5084908482916103c2575b8280929181923390f1156103b7575f806102b8565b6040513d85823e3d90fd5b6108fc91506103a2565b6103d99195505f90610fe4565b5f935f610397565b6040513d5f823e3d90fd5b5f80fd5b60405162461bcd60e51b8152602060048201526012602482015271139bc81999595cc81d1bc818dbdb1b1958dd60721b6044820152606490fd5b5084151561028c565b90509161027f565b8195610277565b915092506040813d604011610475575b8161045f60409383610fe4565b810103126103ec5760208151910151925f61023c565b3d9150610452565b60405162461bcd60e51b81526020600482015260116024820152702737ba103a37b5b2b71031b932b0ba37b960791b6044820152606490fd5b346103ec5760203660031901126103ec5760206104d46004356110d1565b604051908152f35b346103ec575f3660031901126103ec5760206040516b033b2e3c9fd0803ce80000008152f35b346103ec575f3660031901126103ec576001546040516001600160a01b039091168152602090f35b346103ec575f3660031901126103ec576040517f00000000000000000000000000000000000000000000000000000000000000006001600160a01b03168152602090f35b346103ec575f3660031901126103ec576040517f00000000000000000000000000000000000000000000000000000000000000006001600160a01b03168152602090f35b60603660031901126103ec5760043567ffffffffffffffff81116103ec576105de903690600401611006565b60243567ffffffffffffffff81116103ec576105fe903690600401611006565b60443567ffffffffffffffff81116103ec5761061e903690600401611006565b9061062761113d565b6509184e72a0003410610f0d576040517f00000000000000000000000000000000000000000000000000000000000000006001600160a01b0316927f0000000000000000000000000000000000000000000000000000000000000000916120b49182820167ffffffffffffffff811183821017610cfd576106db839260c09561115c853960e083526106cd6106bf60e085018c61105c565b84810360208601528961105c565b90838203604085015261105c565b30606083015233608083015260a082018890526001600160a01b0386169490910184905203905ff080156103e1576001600160a01b031693818510928315610f075785905b8415610eff57905b60405163095ea7b360e01b8152600481018490525f1960248201526001600160a01b039190911691906020816044815f875af180156103e157610ee2575b5060405163095ea7b360e01b8152600481018490525f1960248201526001600160a01b039190911692906020816044815f885af180156103e157610ec5575b508415610eb0576a0289c06ea6df5a36ae398a945b8015610ea657620318f7195b8115610e9d57620d89a05b8215610e96576b033b2e3c9fd0803ce8000000925b15610e83575f975b6dffffffffffffffffffffffffffff604051916309f56ab160e11b835287600484015288602484015261271060448401521660648201526020816084815f895af180156103e157610e66575b5061012c420192834211610dd25760405195610160870187811067ffffffffffffffff821117610cfd57604090815290875260208701978852612710878201908152600294850b6060890190815293850b6080890190815260a0890193845260c089019b8c525f60e08a018181526101008b01918252306101208c019081526101408c01998a529451634418b22b60e11b81529a516001600160a01b0390811660048d01529b518c1660248c0152925162ffffff1660448b01529451860b60648a01525190940b6084880152905160a4870152975160c4860152905160e48501525161010484015294519092166101248201529251610144840152829081905a925f61016492608095f19182156103e1575f92610e1d575b50604051630b4c774160e11b815260048101859052602481018290526127106044820152906020826064817f00000000000000000000000000000000000000000000000000000000000000006001600160a01b03165afa9182156103e1575f92610dec575b506509184e72a000341115610de6576509184e729fff193401348111610dd2575b5f9080158015610d45575b505080610ac0575b604086610aa58787837f0e1e55e4210faa27d2065eff2eb6e238ab2ea56b18d0d44191468946e0432a6f8d8a8851610a2281610fc8565b3381526003602082018781528b83015f815260608401915f8352885f5260026020528d5f209460018060a01b039051166bffffffffffffffffffffffff60a01b8654161785555160018501555160028401555191015560018060a01b0316958695610a978a519360608552606085019061105c565b90838203602085015261105c565b93888201528033940390a460015f5582519182526020820152f35b6040516370a0823160e01b815230600482015292949392916020836024818a5afa9283156103e1575f93610d11575b5060405160e081019181831067ffffffffffffffff841117610cfd576040928352815260208181018981526127108385019081523060608501908152608085018781525f60a0870181815260c0880191825297516304e45aaf60e01b815296516001600160a01b039081166004890152945185166024880152925162ffffff166044870152905183166064860152516084850152935160a48401529251831660c483015290929091839160e4918391907f0000000000000000000000000000000000000000000000000000000000000000165af180156103e157610cce575b506040516370a0823160e01b815230600482015290602082602481895afa9182156103e1575f92610c98575b50610c0a602091610c319361109f565b60405163a9059cbb60e01b8152336004820152602481019190915291829081906044820190565b03815f895af180156103e157604096610aa59587937f0e1e55e4210faa27d2065eff2eb6e238ab2ea56b18d0d44191468946e0432a6f93610c79575b509394955096506109eb565b610c919060203d602011610355576103468183610fe4565b5089610c6d565b91506020823d602011610cc6575b81610cb360209383610fe4565b810103126103ec57905190610c0a610bfa565b3d9150610ca6565b6020813d602011610cf5575b81610ce760209383610fe4565b810103126103ec5751610bce565b3d9150610cda565b634e487b7160e01b5f52604160045260245ffd5b9092506020813d602011610d3d575b81610d2d60209383610fe4565b810103126103ec57519188610aef565b3d9150610d20565b909150610d51826110d1565b9081830291838304141715610dd257612710610d6f9104809261109f565b908015806109e3575f808084819460018060a01b0360015416908390610dc9575bf1156103e1576040519081527f4b28c7dc138644f27518388387393ecbd08ef8d180a4a6799c954be166a37ab360203392a287806109e3565b506108fc610d90565b634e487b7160e01b5f52601160045260245ffd5b5f6109d8565b610e0f91925060203d602011610e16575b610e078183610fe4565b810190611080565b90866109b7565b503d610dfd565b9091506080813d608011610e5e575b81610e3960809383610fe4565b810103126103ec57602081519101516001600160801b038116036103ec579085610952565b3d9150610e2c565b610e7e9060203d602011610e1657610e078183610fe4565b61083a565b6b033b2e3c9fd0803ce8000000976107ee565b5f926107e6565b620318f86107d1565b620d899f196107c6565b6d64dbacb643e10eedf7378a0b5df7946107ba565b610edd9060203d602011610355576103468183610fe4565b6107a5565b610efa9060203d602011610355576103468183610fe4565b610766565b508590610728565b80610720565b60405162461bcd60e51b815260206004820152602a60248201527f4d7573742073656e64206174206c6561737420302e30303030312045544820666044820152696f722073656564696e6760b01b6064820152608490fd5b346103ec5760203660031901126103ec576004356001600160a01b03811691908290036103ec576080915f52600260205260405f2060018060a01b0381541690600181015460036002830154920154928452602084015260408301526060820152f35b6080810190811067ffffffffffffffff821117610cfd57604052565b90601f8019910116810190811067ffffffffffffffff821117610cfd57604052565b81601f820112156103ec5780359067ffffffffffffffff8211610cfd576040519261103b601f8401601f191660200185610fe4565b828452602083830101116103ec57815f926020809301838601378301015290565b805180835260209291819084018484015e5f828201840152601f01601f1916010190565b908160209103126103ec57516001600160a01b03811681036103ec5790565b91908203918211610dd257565b908160209103126103ec575180151581036103ec5790565b91908201809211610dd257565b66b1a2bc2ec50000811061113857670429d069189e00008110156111315766b1a2bc2ec4ffff198101908111610dd2576146508102908082046146501490151715610dd257670de0b6b3a764000090046101f401806101f411610dd25790565b5061138890565b505f90565b60025f541461114c5760025f55565b633ee5aeb560e01b5f5260045ffdfe6101a080604052346106c4576120b4803803809161001d82856106c8565b833981019060e0818303126106c45780516001600160401b0381116106c457826100489183016106eb565b60208201516001600160401b0381116106c457836100679184016106eb565b604083015190936001600160401b0382116106c4576100879184016106eb565b61009360608401610740565b906100a060808501610740565b906100b960c06100b260a08801610740565b9601610740565b936040968751916100ca89846106c8565b60018352603160f81b6020840190815281519092906001600160401b0381116104eb57600354600181811c911680156106ba575b60208210146104cd57601f8111610657575b50806020601f82116001146105f3575f916105e8575b508160011b915f199060031b1c1916176003555b8051906001600160401b0382116104eb5760045490600182811c921680156105de575b60208310146104cd5781601f849311610570575b50602090601f831160011461050a575f926104ff575b50508160011b915f199060031b1c1916176004555b6101a581610754565b610120526101b2836108db565b6101405260208151910120918260e05251902080610100524660a05287519060208201927f8b73c3c69bb8fe3d512ecc4cf759cc79239f7b179b0ffacaa9a75d522b39400f84528983015260608201524660808201523060a082015260a0815261021d60c0826106c8565b5190206080523060c0528051906001600160401b0382116104eb5760085490600182811c921680156104e1575b60208310146104cd5781601f84931161045f575b50602090601f83116001146103f9575f926103ee575b50508160011b915f199060031b1c1916176008555b600980546001600160a01b039283166001600160a01b031991821617909155600a805493909216921682179055610160929092526101805243600b556a108b2a2c28029094000000600c5580156103db576002546b033b2e3c9fd0803ce800000081018091116103c757600255805f525f602052815f206b033b2e3c9fd0803ce800000081540190555f7fddf252ad1be2c89b69c2b068fc378daa952ba7f163c4a11628f55a4df523b3ef602084516b033b2e3c9fd0803ce80000008152a3516116a09081610a14823960805181610e8f015260a05181610f4c015260c05181610e59015260e05181610ede01526101005181610f04015261012051816104310152610140518161045a01526101605181818161072401528181610ac3015261103d0152610180518181816102b101528181610b1f01526110990152f35b634e487b7160e01b5f52601160045260245ffd5b63ec442f0560e01b5f525f60045260245ffd5b015190505f80610274565b60085f9081528281209350601f198516905b818110610447575090846001959493921061042f575b505050811b01600855610289565b01515f1960f88460031b161c191690555f8080610421565b9293602060018192878601518155019501930161040b565b60085f529091507ff3f7a9fe364faab93b216da50a3214154f22a0a2b415b23a84c8169e8b636ee3601f840160051c810191602085106104c3575b90601f859493920160051c01905b8181106104b5575061025e565b5f81558493506001016104a8565b909150819061049a565b634e487b7160e01b5f52602260045260245ffd5b91607f169161024a565b634e487b7160e01b5f52604160045260245ffd5b015190505f80610187565b60045f9081528281209350601f198516905b8181106105585750908460019594939210610540575b505050811b0160045561019c565b01515f1960f88460031b161c191690555f8080610532565b9293602060018192878601518155019501930161051c565b60045f529091507f8a35acfbc15ff81a39ae7d344fd709f28e8600b4aa8c65c6b64bfe7fe36bd19b601f840160051c810191602085106105d4575b90601f859493920160051c01905b8181106105c65750610171565b5f81558493506001016105b9565b90915081906105ab565b91607f169161015d565b90508301515f610126565b60035f9081528181209250601f198416905b81811061063f57509083600194939210610627575b5050811b0160035561013a565b8501515f1960f88460031b161c191690555f8061061a565b9192602060018192868a015181550194019201610605565b60035f527fc2575a0e9e593c00f959f8c92f12db2869c3395a3b0502d05e2516446f71f85b601f830160051c810191602084106106b0575b601f0160051c01905b8181106106a55750610110565b5f8155600101610698565b909150819061068f565b90607f16906100fe565b5f80fd5b601f909101601f19168101906001600160401b038211908210176104eb57604052565b81601f820112156106c4578051906001600160401b0382116104eb576040519261071f601f8401601f1916602001856106c8565b828452602083830101116106c457815f9260208093018386015e8301015290565b51906001600160a01b03821682036106c457565b908151602081105f146107ce575090601f81511161078e57602081519101516020821061077f571790565b5f198260200360031b1b161790565b604460209160405192839163305a27a960e01b83528160048401528051918291826024860152018484015e5f828201840152601f01601f19168101030190fd5b6001600160401b0381116104eb57600554600181811c911680156108d1575b60208210146104cd57601f811161089e575b50602092601f821160011461083d57928192935f92610832575b50508160011b915f199060031b1c19161760055560ff90565b015190505f80610819565b601f1982169360055f52805f20915f5b868110610886575083600195961061086e575b505050811b0160055560ff90565b01515f1960f88460031b161c191690555f8080610860565b9192602060018192868501518155019401920161084d565b60055f52601f60205f20910160051c810190601f830160051c015b8181106108c657506107ff565b5f81556001016108b9565b90607f16906107ed565b908151602081105f14610906575090601f81511161078e57602081519101516020821061077f571790565b6001600160401b0381116104eb57600654600181811c91168015610a09575b60208210146104cd57601f81116109d6575b50602092601f821160011461097557928192935f9261096a575b50508160011b915f199060031b1c19161760065560ff90565b015190505f80610951565b601f1982169360065f52805f20915f5b8681106109be57508360019596106109a6575b505050811b0160065560ff90565b01515f1960f88460031b161c191690555f8080610998565b91926020600181928685015181550194019201610985565b60065f52601f60205f20910160051c810190601f830160051c015b8181106109fe5750610937565b5f81556001016109f1565b90607f169061092556fe6080806040526004361015610012575f80fd5b5f3560e01c90816302d05d3f1461083b5750806306fdde0314610796578063095ea7b31461077057806318160ddd146107535780631bea83fe1461070f57806323b872dd146106d7578063313ce567146106bc5780633644e5151461069a5780633c130d90146105f557806342966c68146105d85780634bde38c8146105b057806370a082311461057957806379cc6790146105495780637ecebe001461051157806384b0196e14610419578063902d55a5146103f357806395d89b4114610311578063a9059cbb146102e0578063ad5c46481461029c578063d505accf146101575763dd62ed3e14610103575f80fd5b346101535760403660031901126101535761011c610882565b610124610898565b6001600160a01b039182165f908152600160209081526040808320949093168252928352819020549051908152f35b5f80fd5b346101535760e036600319011261015357610170610882565b610178610898565b604435906064359260843560ff81168103610153578442116102895761024c6102559160018060a01b03841696875f52600760205260405f20908154916001830190556040519060208201927f6e71edae12b1b97f4d1f60370fef10105fa2faae0126114a169c64845d6126c984528a604084015260018060a01b038916606084015289608084015260a083015260c082015260c0815261021a60e0826108e6565b519020610225610e56565b906040519161190160f01b83526002830152602282015260c43591604260a4359220611574565b909291926115f6565b6001600160a01b031684810361027257506102709350611330565b005b84906325c0072360e11b5f5260045260245260445ffd5b8463313c898160e11b5f5260045260245ffd5b34610153575f366003190112610153576040517f00000000000000000000000000000000000000000000000000000000000000006001600160a01b03168152602090f35b34610153576040366003190112610153576103066102fc610882565b60243590336109e5565b602060405160018152f35b34610153575f366003190112610153576040515f600454610331816108ae565b80845290600181169081156103cf5750600114610371575b61036d83610359818503826108e6565b60405191829160208352602083019061085e565b0390f35b60045f9081527f8a35acfbc15ff81a39ae7d344fd709f28e8600b4aa8c65c6b64bfe7fe36bd19b939250905b8082106103b557509091508101602001610359610349565b91926001816020925483858801015201910190929161039d565b60ff191660208086019190915291151560051b840190910191506103599050610349565b34610153575f3660031901126101535760206040516b033b2e3c9fd0803ce80000008152f35b34610153575f366003190112610153576104b56104557f00000000000000000000000000000000000000000000000000000000000000006113bf565b61047e7f00000000000000000000000000000000000000000000000000000000000000006114bc565b60206104c36040519261049183856108e6565b5f84525f368137604051958695600f60f81b875260e08588015260e087019061085e565b90858203604087015261085e565b4660608501523060808501525f60a085015283810360c08501528180845192838152019301915f5b8281106104fa57505050500390f35b8351855286955093810193928101926001016104eb565b34610153576020366003190112610153576001600160a01b03610532610882565b165f526007602052602060405f2054604051908152f35b3461015357604036600319011261015357610270610565610882565b6024359061057482338361091c565b610f72565b34610153576020366003190112610153576001600160a01b0361059a610882565b165f525f602052602060405f2054604051908152f35b34610153575f36600319011261015357600a546040516001600160a01b039091168152602090f35b346101535760203660031901126101535761027060043533610f72565b34610153575f366003190112610153576040515f600854610615816108ae565b80845290600181169081156103cf575060011461063c5761036d83610359818503826108e6565b60085f9081527ff3f7a9fe364faab93b216da50a3214154f22a0a2b415b23a84c8169e8b636ee3939250905b80821061068057509091508101602001610359610349565b919260018160209254838588010152019101909291610668565b34610153575f3660031901126101535760206106b4610e56565b604051908152f35b34610153575f36600319011261015357602060405160128152f35b34610153576060366003190112610153576103066106f3610882565b6106fb610898565b6044359161070a83338361091c565b6109e5565b34610153575f366003190112610153576040517f00000000000000000000000000000000000000000000000000000000000000006001600160a01b03168152602090f35b34610153575f366003190112610153576020600254604051908152f35b346101535760403660031901126101535761030661078c610882565b6024359033611330565b34610153575f366003190112610153576040515f6003546107b6816108ae565b80845290600181169081156103cf57506001146107dd5761036d83610359818503826108e6565b60035f9081527fc2575a0e9e593c00f959f8c92f12db2869c3395a3b0502d05e2516446f71f85b939250905b80821061082157509091508101602001610359610349565b919260018160209254838588010152019101909291610809565b34610153575f366003190112610153576009546001600160a01b03168152602090f35b805180835260209291819084018484015e5f828201840152601f01601f1916010190565b600435906001600160a01b038216820361015357565b602435906001600160a01b038216820361015357565b90600182811c921680156108dc575b60208310146108c857565b634e487b7160e01b5f52602260045260245ffd5b91607f16916108bd565b90601f8019910116810190811067ffffffffffffffff82111761090857604052565b634e487b7160e01b5f52604160045260245ffd5b6001600160a01b039081165f818152600160209081526040808320948616835293905291909120549291905f198410610956575b50505050565b8284106109c25780156109af576001600160a01b0382161561099c575f52600160205260405f209060018060a01b03165f5260205260405f20910390555f808080610950565b634a1406b160e11b5f525f60045260245ffd5b63e602df0560e01b5f525f60045260245ffd5b508290637dc7a0d960e11b5f5260018060a01b031660045260245260445260645ffd5b6001600160a01b0316908115610e43576001600160a01b0316918215610e3057600b5480431480610e28575b80610e13575b80610dfe575b80610dcf575b610d8b578043119081610d75575b50610aae575b815f525f60205260405f2054818110610a9557817fddf252ad1be2c89b69c2b068fc378daa952ba7f163c4a11628f55a4df523b3ef92602092855f525f84520360405f2055845f525f825260405f20818154019055604051908152a3565b8263391434e360e21b5f5260045260245260445260645ffd5b60405163c45a015560e01b81526020816004817f00000000000000000000000000000000000000000000000000000000000000006001600160a01b03165afa908115610d4d576064916020915f91610d58575b50604051630b4c774160e11b81523060048201526001600160a01b037f00000000000000000000000000000000000000000000000000000000000000008116602483015261271060448301529093849290918391165afa908115610d4d575f91610d1e575b506001600160a01b031682811480610d09575b80610cf4575b610c44575b6009546001600160a01b03168414159081610c2e575b81610c23575b5080610c1b575b15610a3757825f525f602052610bc18160405f2054611393565b600c541015610a375760405162461bcd60e51b815260206004820152602360248201527f416e74692d626f743a204d61782077616c6c6574206c696d697420657863656560448201526219195960ea1b6064820152608490fd5b506001610ba7565b90508314155f610ba0565b600a546001600160a01b03168514159150610b9a565b325f52600d60205260405f20610c5b838254611393565b9055325f52600d60205260405f2054600c54606e810290808204606e1490151715610ce057606490041015610b845760405162461bcd60e51b815260206004820152602860248201527f416e74692d626f743a2045786365656473207065722d7478206c696d697420666044820152671c9bdb481c1bdbdb60c21b6064820152608490fd5b634e487b7160e01b5f52601160045260245ffd5b506009546001600160a01b0316841415610b7f565b50600a546001600160a01b0316841415610b79565b610d40915060203d602011610d46575b610d3881836108e6565b8101906113a0565b5f610b66565b503d610d2e565b6040513d5f823e3d90fd5b610d6f9150823d8411610d4657610d3881836108e6565b5f610b01565b905060058101809111610ce0574311155f610a31565b606460405162461bcd60e51b815260206004820152602060248201527f4e6f206275797320616c6c6f77656420696e206c61756e636820626c6f636b216044820152fd5b50600a546001600160a01b0316831480610dea575b15610a23565b506009546001600160a01b03168414610de4565b50600a546001600160a01b0316841415610a1d565b50600a546001600160a01b0316831415610a17565b506001610a11565b63ec442f0560e01b5f525f60045260245ffd5b634b637e8f60e11b5f525f60045260245ffd5b307f00000000000000000000000000000000000000000000000000000000000000006001600160a01b03161480610f49575b15610eb1577f000000000000000000000000000000000000000000000000000000000000000090565b60405160208101907f8b73c3c69bb8fe3d512ecc4cf759cc79239f7b179b0ffacaa9a75d522b39400f82527f000000000000000000000000000000000000000000000000000000000000000060408201527f000000000000000000000000000000000000000000000000000000000000000060608201524660808201523060a082015260a08152610f4360c0826108e6565b51902090565b507f00000000000000000000000000000000000000000000000000000000000000004614610e88565b9091906001600160a01b03168015610e4357600b5480431480611328575b80611313575b806112ff575b806112d1575b610d8b5780431190816112bb575b50611028575b805f525f60205260405f205483811061100e576020845f94957fddf252ad1be2c89b69c2b068fc378daa952ba7f163c4a11628f55a4df523b3ef938587528684520360408620558060025403600255604051908152a3565b915063391434e360e21b5f5260045260245260445260645ffd5b60405163c45a015560e01b81526020816004817f00000000000000000000000000000000000000000000000000000000000000006001600160a01b03165afa908115610d4d576064916020915f9161129e575b50604051630b4c774160e11b81523060048201526001600160a01b037f00000000000000000000000000000000000000000000000000000000000000008116602483015261271060448301529093849290918391165afa908115610d4d575f9161127f575b506001600160a01b03168181148061126b575b80611257575b6111bb575b6009546001600160a01b0316151590816111a6575b8161119c575b5080611194575b15610fb6575f80525f60205261113a8360405f2054611393565b600c541015610fb65760405162461bcd60e51b815260206004820152602360248201527f416e74692d626f743a204d61782077616c6c6574206c696d697420657863656560448201526219195960ea1b6064820152608490fd5b506001611120565b905015155f611119565b600a546001600160a01b031615159150611113565b325f52600d60205260405f206111d2858254611393565b9055325f52600d60205260405f2054600c54606e810290808204606e1490151715610ce0576064900410156110fe5760405162461bcd60e51b815260206004820152602860248201527f416e74692d626f743a2045786365656473207065722d7478206c696d697420666044820152671c9bdb481c1bdbdb60c21b6064820152608490fd5b506009546001600160a01b031615156110f9565b50600a546001600160a01b031615156110f3565b611298915060203d602011610d4657610d3881836108e6565b5f6110e0565b6112b59150823d8411610d4657610d3881836108e6565b5f61107b565b905060058101809111610ce0574311155f610fb0565b50600a546001600160a01b03168214806112ec575b15610fa2565b506009546001600160a01b0316156112e6565b50600a546001600160a01b03161515610f9c565b50600a546001600160a01b0316821415610f96565b506001610f90565b6001600160a01b03169081156109af576001600160a01b031691821561099c5760207f8c5be1e5ebec7d5bd14f71427d1e84f3dd0314c0f7b2291e5b200ac8c7c3b92591835f526001825260405f20855f5282528060405f2055604051908152a3565b91908201809211610ce057565b9081602091031261015357516001600160a01b03811681036101535790565b60ff81146114055760ff811690601f82116113f657604051916113e36040846108e6565b6020808452838101919036833783525290565b632cd44ac360e21b5f5260045ffd5b50604051600554815f611417836108ae565b808352926001811690811561149d575060011461143e575b61143b925003826108e6565b90565b5060055f90815290917f036b6384b5eca791c62761152d0c79bb0604c104a5fb6f4eb0703f3154bb3db05b81831061148157505090602061143b9282010161142f565b6020919350806001915483858801015201910190918392611469565b6020925061143b94915060ff191682840152151560051b82010161142f565b60ff81146114e05760ff811690601f82116113f657604051916113e36040846108e6565b50604051600654815f6114f2836108ae565b808352926001811690811561149d57506001146115155761143b925003826108e6565b5060065f90815290917ff652222313e28459528d920b65115c16c04f3efc82aaedc97be59f3f377c0d3f5b81831061155857505090602061143b9282010161142f565b6020919350806001915483858801015201910190918392611540565b91907f7fffffffffffffffffffffffffffffff5d576e7357a4501ddfe92f46681b20a084116115eb579160209360809260ff5f9560405194855216868401526040830152606082015282805260015afa15610d4d575f516001600160a01b038116156115e157905f905f90565b505f906001905f90565b5050505f9160039190565b60048110156116565780611608575050565b6001810361161f5763f645eedf60e01b5f5260045ffd5b6002810361163a575063fce698f760e01b5f5260045260245ffd5b6003146116445750565b6335e2f38360e21b5f5260045260245ffd5b634e487b7160e01b5f52602160045260245ffdfea2646970667358221220331ea466d60b3703ebf5797db27fc189f1035298d76f14ad59af5435962b78c864736f6c634300081e0033a2646970667358221220c593a96fc00b7978d7039d300cf48e0187738e76e22b582ac7814f5f90cb70d264736f6c634300081e0033",
    "linkReferences": {}
  },
  "methodIdentifiers": {
    "POOL_FEE()": "dd1b9c4a",
    "TOTAL_SUPPLY()": "902d55a5",
    "WETH()": "ad5c4648",
    "collectFees(address)": "a480ca79",
    "createTokenAndPool(string,string,string)": "4105ddc7",
    "getPenalty(uint256)": "96e59682",
    "launches(address)": "1f2d8550",
    "owner()": "8da5cb5b",
    "positionManager()": "791b98bc",
    "swapRouter()": "c31c9c07",
    "uniswapFactory()": "8bdb2afa"
  },
  "id": 59
}